:100000000C9459000C9476000C9476000C947600B5
:100010000C9476000C9476000C9476000C94760088
:100020000C9476000C9495090C9476000C94760050
:100030000C9476000C945D060C9476000C9476007B
:100040000C9476000C9476000C9476000C94760058
:100050000C9476000C9476000C9476000C94760048
:100060000C9476000C947600000000000000001F45
:100070001F1F1F1F1F1F4C31362063646567726589
:100080006734003E6733323E3E63333200666F6C46
:100090006C6F77657200504944204C696E6500337F
:1000A000F720526F626F740020506F6C6F6C750098
:1000B000590A11241FBECFEFD8E0DEBFCDBF11E03B
:1000C000A0E0B1E0EEECF2E202C005900D92AE339A
:1000D000B107D9F722E0AEE3B1E001C01D92AE3026
:1000E000B207E1F70E94C8020C945A110C94000068
:1000F00060E088E690E00E948E0761E089E690E08B
:100100000E948E0762E08AE690E00E948E0763E01C
:100110008BE690E00E948E0764E08CE690E00E94FF
:100120008E0765E08DE690E00E948E0766E08EE621
:1001300090E00E948E070E9401080895EF92FF92BE
:100140000F931F93CF93DF93CDB7DEB72A970FB6E8
:10015000F894DEBF0FBECDBF8C017C018AE0E80EB3
:10016000F11C8AE0E2E1F1E0DE01119601900D92CE
:100170008A95E1F7F801219131918F01A7E4B4E16B
:100180000E94DA0F9695879596958795969587950F
:10019000E1E0F0E0EC0FFD1FE80FF91F80810E9405
:1001A00091070E151F05E9F62A960FB6F894DEBFE3
:1001B0000FBECDBFDF91CF911F910F91FF90EF90B8
:1001C00008950F931F93CF93DF93CDB7DEB72A9790
:1001D0000FB6F894DEBF0FBECDBF80ED97E00E9452
:1001E000550A0E94780088EA90E00E94210861E0A8
:1001F00080E00E9499088FE990E00E94210883E83E
:1002000090E00E94CE0684EF91E00E94DD090E94FA
:10021000010886E990E00E94210861E080E00E94E8
:1002200099088DE890E00E94210888EE93E00E94F2
:10023000DD0908C084EF91E00E94DD0984E690E0CA
:100240000E94DD0982E00E949209882399F382E0EE
:100250000E947E0988EE93E00E94DD090CEE1FEFFC
:100260000832110538F068ED7FEF88E290E00E94D7
:100270004F0906C068E270E088ED9FEF0E944F09C9
:1002800081E00E94190A84E190E00E94DD090F5F7D
:100290001F4F0C33110521F760E070E080E090E023
:1002A0000E944F0919C061E0CE0101960E941F0A09
:1002B0008C010E940108B80180E090E00E9476085D
:1002C00061E080E00E949908CE0101960E949E00A4
:1002D00084E690E00E94DD0980E10E949209882373
:1002E00011F380E10E947E090E94010889E391E0F8
:1002F0000E94100886E790E00E94CE060E94BD068C
:100300008111FCCF2A960FB6F894DEBF0FBECDBF89
:10031000DF91CF911F910F9108958C3429F0823590
:1003200071F0823409F516C060E570E080EB9FEF54
:100330000E944F0988EC90E00E94DD09089560EB6F
:100340007FEF80E590E00E944F0988EC90E00E94EA
:10035000DD09089560EB7FEF80E590E00E944F0992
:1003600080E991E00E94DD0908952F923F924F921B
:100370005F926F927F928F929F92AF92BF92CF9235
:10038000DF92EF92FF920F931F93CF93DF93CDB73E
:10039000DEB72A970FB6F894DEBF0FBECDBF812C13
:1003A000912C540100E010E00F2EF0E14F2EF7E207
:1003B0005F2E612C712CF02D0F2EF4E1CF2ED12C5D
:1003C000F02D0F2EF4EC3F2EF02D22242A9461E024
:1003D000CE0101960E941F0A805D97407C01092E84
:1003E000000CAA0BBB0B880E991EAA1EBB1EC701D0
:1003F000801B910B8C01000F111F080F191F112377
:1004000014F40F5F1F4F15950795C501B401A301A3
:1004100092010E94BB0F200F311FC701B6010E943D
:10042000850F260F371F2D33310514F02CE330E0F4
:10043000C901843C2FEF920714F4832D922D992348
:1004400034F46CE370E0CC960E944F0908C06CE372
:1004500070E0681B790B8CE390E00E944F098B8160
:100460009C818436910550F48D819E81843691055E
:1004700028F48F8198858436910560F089819A816E
:10048000893C910538F489859A85893C910510F459
:1004900087019DCF2A960FB6F894DEBF0FBECDBF61
:1004A000DF91CF911F910F91FF90EF90DF90CF9050
:1004B000BF90AF909F908F907F906F905F904F9084
:1004C0003F902F900895811106C0611106C041111F
:1004D00006C082E408958CE4089583E5089582E5DA
:1004E0000895CF93DF932091A101233008F44DC0EC
:1004F000C22FD0E0FE01E056FE4F8081823409F029
:1005000044C0AE01FA01EE55FE4F41565E4F60E029
:1005100070E092919C3441F0923519F0923449F494
:1005200006C0665A7F4F05C0625F7E4F02C06C54A2
:100530007F4FE417F50769F7CB0168E671E00E9489
:10054000850F8A35910581F01CF4892BD9F407C0F9
:10055000843B910571F08E30914081F013C0C156FB
:10056000DE4F83E588830EC0C156DE4F82E5888367
:1005700009C0C156DE4F82E4888304C0C156DE4FF5
:100580008CE4888322502093A101DF91CF910895BC
:10059000CF93DF93CDB7DEB72A970FB6F894DEBFBF
:1005A0000FBECDBF0E94E10010E00E94B50162E3E2
:1005B00070E082E390E00E944F0982E390E00E94A5
:1005C000DD0961E0CE0101960E941F0A01E08981E8
:1005D0009A818536910508F4012FFF24F3948985CB
:1005E0009A858536910508F4F12E68E270E088E27C
:1005F00090E00E944F0988EC90E00E94DD0961E0E4
:10060000CE0101960E941F0A8B819C81893C910535
:1006100068F42D813E81293C310550F461E02F8141
:100620003885293C310528F4612F03C061E001C001
:1006300061E08935924050F08D819E8189359240EC
:1006400028F08F81988589359240A0F44F2D802F16
:100650000E946302082F0E948D018091A101E82F62
:10066000F0E0EE55FE4F00838F5F8093A1010E9462
:1006700071029BCF04E010E062E370E082E390E05F
:100680000E944F0982E390E00E94DD0901501109A8
:1006900099F706C060E070E080E090E00E944F09AA
:1006A00080E10E9492098823A9F388EE93E00E94DA
:1006B000DD098091A101882359F10F2EF2EAEF2E76
:1006C000F1E0FF2EF02D00E010E00E94B50162E3A2
:1006D00070E082E390E00E944F0982E390E00E9484
:1006E000DD0968E270E088E290E00E944F0988EC42
:1006F00090E00E94DD09F70181917F010E948D0148
:100700000F5F1F4F8091A10190E008171907ECF2CD
:100710000E94B50107E010E062E370E082E390E040
:100720000E944F0982E390E00E94DD090150110907
:1007300099F706C060E070E080E090E00E944F0909
:1007400080E10E9492098823A9F3B3CF90914301DD
:10075000E0913E01F0913F01992311F0849101C095
:1007600080812FEB280F2A3110F4805E08958032AB
:1007700049F49F012F5F3F4F30933F0120933E018B
:10078000EF2B31F708951F93CF93DF930E94A603B9
:10079000C0E0D0E01AE090ED980F9A30B8F49E01D6
:1007A000129FE001139FD00D1124C80FD11D87FDAA
:1007B000DA95E09780913E0190913F0101969093E8
:1007C0003F0180933E010E94A603E5CFCE01DF9159
:1007D000CF911F91089510926F0083E28093800063
:1007E00081E1809381001092820080E197E29093F2
:1007F00089008093880010928B0010928A00229AC0
:10080000789408958F929F92AF92BF92DF92EF9269
:10081000FF920F931F93CF93DF935C018B01D42E34
:1008200080914001811105C081E0809340010E94C8
:10083000EB0310920901B7FE05C0E894B7F82AE06F
:10084000F22E02C0FF24F394E09081002E2D287F29
:10085000E22E48ECF49EC00111248A159B05E0F4B9
:10086000E50151E1A51657E2B50610F0C0E1D7E267
:10087000BE017695679580E090E06058794687469E
:100880009F4F4E01A12CB12CA50194010E94990FFC
:1008900059018E2D816024C0C8E2FC9EC02D112418
:1008A000D0E0CA15DB0508F4E501BE017695679531
:1008B0009E0140E050E08AE0F81207C080E090E03E
:1008C000605E734481449F4F06C080E090E06053B7
:1008D0007D4E8C4E9F4F0E94990F59018E2D826044
:1008E000882E2AE0F21207C0CE0105966AE070E079
:1008F0000E94710FEB01C83E43E0D40759F0980104
:10090000DE010E94DA0F28EE33E040E050E00E9462
:10091000BB0F890110926F0080928100B092890014
:10092000A092880020918800309189004D2D40319F
:1009300008F04FE080E190E0841B9109A90102C01A
:10094000569547958A95E2F750938B0040938A001D
:10095000109346010093450186B38FEF86BB81E07B
:1009600080936F00DF91CF911F910F91FF90EF90D7
:10097000DF90BF90AF909F908F900895CF93DF93BB
:10098000EB018F3F11F0411105C040E0BE0188EE40
:1009900093E043C0813130F050EF580F503618F0DB
:1009A0005FE501C050E0852F6CE00E94650F682F65
:1009B00074EF760390011124250F311D2C30310581
:1009C00040F4F901EE0FFF1FE45EFE4F20813181FC
:1009D00002C020E030E0873081F0082E02C0220FF4
:1009E000331F0A94E2F7823028F0C90105966AE0C5
:1009F00070E00CC0C90190580CC0C90136E0880FE6
:100A0000991F3A95E1F7029665E070E00E94710F38
:100A1000CB01403108F04FE0BE010E940204DF919B
:100A2000CF910895A2E0B0E0E8E1F5E00C94FE0F6C
:100A30009090080180914201882321F0609141014A
:100A4000611117C077247394B0ECAB2EBDE5BB2EBB
:100A50001AE0612E04E0802E80EDC82E87E0D82EAB
:100A600094E0E92EF12C04EF11E02FE0422E512CFE
:100A700015C070E040E088EE93E00E9402041092FE
:100A8000410117C18636D4F5813609F4A9C07CF539
:100A90008C3309F460C08E3381F493940E94A603D2
:100AA00020913E0130913F012F5F3F4F30933F0136
:100AB00020933E01853631F752C0813209F08BC058
:100AC00080920801D0920701C0920601F0920501C0
:100AD000E09204011093030100930201509201017E
:100AE0004092000110924201A4E09A2ED7CF8336A3
:100AF000A1F10CF478C010E082E077C08D36C1F12E
:100B000094F4873691F174F18C3609F064C00E9438
:100B1000C303BC01909305018093040180910601F9
:100B20009091070151C08237C9F14CF48F3609F01A
:100B300052C00E94C303982E80930801AFCF843720
:100B400081F1863709F047C00E94C30390930101E9
:100B500080930001A3CF9A94A1CF10E020C010E0B1
:100B600084E043C010E085E040C010E087E03DC075
:100B70000E94A6038C3619F41092420104C07092B0
:100B800042011092410120913E0130913F012F5FBF
:100B90003F4F30933F0120933E0180CF11E080E032
:100BA00024C00E94C303BC01C5010E94710F669E50
:100BB000C001679E900D1124909307018093060158
:100BC00060910401709105010E94710F70930301FF
:100BD0006093020163CF10923F0110923E0169C001
:100BE00010E089E002C010E08BE0082F9CE0999EA5
:100BF000000D11240E94A603982F977F933261F471
:100C000020913E0130913F012F5F3F4F30933F01D4
:100C100020933E010F5FEECF8D3271F420913E01A3
:100C200030913F012F5F3F4F30933F0120933E01B2
:100C300001500E94A603F0CF609102017091030160
:100C40008153883050F4E0900601F09007010E9433
:100C5000C303BC01C7010E94710F7B01F694E794A6
:100C600069837A830E94A60369817A818E3269F44E
:100C700020913E0130913F012F5F3F4F30933F0164
:100C800020933E016E0D7F1DE9CF809142018823A4
:100C900039F09B013695279520934101621B71091C
:100CA00040910001112311F08FEF01C0802F0E94AD
:100CB000BE042296E0E10C941A101F920F920FB618
:100CC0000F9211242F933F934F935F936F937F93D2
:100CD0008F939F93AF93BF93EF93FF9380914501C1
:100CE000909146019C012150310930934601209397
:100CF0004501892B11F510926F0078948091810045
:100D0000887F81608093810080E197E290938900E1
:100D10008093880010928B0010928A0081E080936B
:100D2000090180913E0190913F01892B31F0809122
:100D30004401811102C00E941205FF91EF91BF9101
:100D4000AF919F918F917F916F915F914F913F9163
:100D50002F910F900FBE0F901F9018958091090151
:100D6000882349F081E020913E0130913F01232BFF
:100D700019F480E0089581E008950E94AE06089578
:100D800010926F0090933F0180933E0181E0809329
:100D90004301109241010E94120508950E94C0066D
:100DA000089581E090E06F9364E06A95F1F76F91A8
:100DB0000197C9F708950F931F93CF93DF931AB14B
:100DC00057985A98289AC0E0D0E00E94D1065C9AC1
:100DD0000E94D10609B15C980E94D1065C9A0E94DB
:100DE000D1065C98249607FF10C0AE0160E070E069
:100DF0008091470190914801A0914901B0914A0129
:100E0000481759076A077B0700F31AB9DF91CF919A
:100E10001F910F91089595B1282F217030E0220F76
:100E2000331F482F467068E0469FA0011124242BF1
:100E30009D7C292B25B99BB188708295807F9F77F7
:100E4000892B8BB95C9A0E94D1065C980E94D106CE
:100E50000895A0E0B0E0EFE2F7E00C940710C82F8F
:100E6000D62EE42E80910602811105C081E0809388
:100E700006020E9499070E94DB0614B1D5B1FAB0B0
:100E80000BB12898DD2011F05A9A01C05A9894B1FC
:100E9000926394B9579A81E0E81629F08C2F8295D5
:100EA0008F700E940B078C2F8F700E940B07FAB86F
:100EB0000BB914B9D5B9CDB7DEB7E7E00C94231060
:100EC00042E060E00E942907089542E061E00E944C
:100ED00029070895A1E0B0E0E0E7F7E00C940810DE
:100EE0008C01660F660F660FE12CF12C8E2D860F9C
:100EF000806469830E946007F801EE0DFF1D8491F4
:100F00000E9465078FEFE81AF80A6981E8E0EE169B
:100F1000F10461F72196E6E00C9424100E946A0720
:100F200008950E946507089541E060E00E94290746
:100F3000089580E197E2A0E0B0E0809347019093AC
:100F40004801A0934901B0934A01529A209A549AB9
:100F50008EE190E00E94DD0983E00E94940786E024
:100F600090E00E94DD0983E00E94940782E090E017
:100F70000E94DD0983E00E94940782E090E00E94D5
:100F8000DD0982E00E94940782E090E00E94DD0982
:100F900088E20E94600788E00E94600781E00E946A
:100FA000600786E00E9460078CE00E946007089559
:100FB00081E00E94600780914D0190914E01892B44
:100FC000F9F060E0A0E2262F30E070910A018091F4
:100FD0000B0190E00197789FA001799F500D11249B
:100FE000241735074CF4E0914D01F0914E01E20FCA
:100FF000F31FA0836F5FE7CF10924B0110924C015B
:1010000008950E94D8070895CF93DF93EC0189914A
:10101000882319F00E946507FACFDF91CF910895D8
:101020000E9404080895CF93DF93EC01FE018491A0
:10103000882321F00E9465072196F8CFDF91CF9198
:1010400008950E9413080895AAE0B0E0EAE2F8E0EB
:101050000C9406101AE05AE0C52ED12CE12CF12C8C
:10106000062FA70196010E94990FCA01B9011150DC
:10107000E1E0F0E0EC0FFD1FE10FF11D005D2AE063
:10108000629F001911240083611571058105910586
:1010900039F71A3058F4E1E0F0E0EC0FFD1FE10FF2
:1010A000F11D80810E9465071F5FF3CF2A96E8E05B
:1010B0000C942210CF92DF92EF92FF926B017C0191
:1010C00097FF0BC0F094E094D094C094C11CD11C45
:1010D000E11CF11C8DE20E946507C701B6010E9468
:1010E0002408FF90EF90DF90CF9008950E945A0857
:1010F0000895A5E0B0E0EFE7F8E00C940B10182F8E
:1011000080E8898380EC8A8384E98B8384ED8C83F7
:10111000FE01E60FF11D8181810F6D830E94600742
:1011200010934B016D8160934C012596E3E00C9484
:1011300027100E9479080895883058F491E001C082
:10114000990F8A95EAF7892FAAE2B0E0EBE2F0E086
:1011500021C08E3060F498EF980F81E001C0880FB5
:101160009A95EAF7A4E2B0E0E5E2F0E013C0853139
:1011700060F492EF980F81E001C0880F9A95EAF72A
:10118000A7E2B0E0E8E2F0E005C080E0A0E0B0E077
:10119000E0E0F0E06F3F19F49081982709C06623E2
:1011A00019F09081982B04C02081982F909592235C
:1011B00090839C91982B9C93089583EF8093B0002B
:1011C00084BD82E08093B10085BD1092B40010927E
:1011D000B30018BC17BC60E086E00E949C0860E089
:1011E00085E00E949C0860E08BE00E949C0860E023
:1011F00083E00E949C08089580910702811105C038
:1012000081E0809307020E94DD080895CF93DF9369
:10121000EC010E94FC08D7FF05C0D195C195D1090A
:1012200081E001C080E0CF3FD10519F014F0CFEF8D
:10123000D0E0882319F018BCC7BD02C0C8BD17BCD8
:10124000DF91CF910895CF93DF93EC010E94FC08CA
:10125000D7FF05C0D195C195D10981E001C080E0DB
:10126000CF3FD10519F014F0CFEFD0E0882329F05B
:101270001092B400C093B30004C0C093B4001092A5
:10128000B300DF91CF910895CF93DF93EB010E94DC
:101290000609CE010E942309DF91CF9108950E9493
:1012A0004409089584B18D7C84B985B1826385B980
:1012B00085E090E06F9364E06A95F1F76F91019794
:1012C000C9F7089580910802811105C081E08093DB
:1012D00008020E9452090895CF93C82F0E94620904
:1012E00083B18C23E9F38AE090E00E94DD0983B1A9
:1012F0008C23B1F383B18C23CF9108950E946C09A4
:101300000895A1E0B0E0E7E8F9E00C940C108983BF
:101310000E94620993B19095898189232196E2E028
:101320000C9428100E94810908952F928F939F9307
:101330002FB68091560190915701019680935601E6
:101340009093570190E080915801891F8093580134
:10135000909150019C5F9093500180914F0180517A
:101360009742C0F09093500180934F0180915101BA
:10137000909152010196809351019093520190E017
:1013800080915301891F8093530180915401891FDB
:10139000809354012FBE9F918F912F90189528EE26
:1013A00033E0019748F0F9016F9364E06A95F1F733
:1013B0006F913197C9F7F5CF08950E94CF0908952D
:1013C000E0E7F0E080818E7F8083A0EBB0E08C913D
:1013D00083608C93A1EBB0E08C91807F8C938C9197
:1013E00082608C93B89A808181608083789408951C
:1013F00080910902811105C081E0809309020E9459
:10140000E00908950E94F809E0E7F0E080818E7F0E
:101410008083109251011092520110925301109248
:1014200054011092500110924F018081816080839D
:101430000895682F89E591E00E94010E0895462FD6
:1014400020E0BC0189E591E00E94D20E08950F933F
:10145000CF93DF9300D000D01F92CDB7DEB79C01B1
:1014600085E0E4E3F1E0DE01119601900D928A95AA
:10147000E1F7662311F00FEF01C003E145E0BE0183
:101480006F5F7F4F89E591E00E94F90A89E591E05D
:101490000E94D00A0E94020A0F900F900F900F90A6
:1014A0000F90DF91CF910F91089560E00E94270A7D
:1014B000089589E591E00E94470F08956F9364E0D5
:1014C0006A95F1F76F910197C9F70895FC011182B0
:1014D000108213821282158214821682683068F498
:1014E00089E290E0918380838BE290E09383828312
:1014F0008AE290E0958384831FC06E3070F483E2AB
:1015000090E09183808385E290E09383828384E2FC
:1015100090E09583848368500FC0653198F486E22B
:1015200090E09183808388E290E09383828387E2D6
:1015300090E0958384836E5081E001C0880F6A95A6
:10154000EAF786830895A7E0B0E0E9EAFAE00C94B0
:101550000A108C01FC011182108213821282158202
:10156000148217821682613118F080E1808702C0F0
:10157000FC016087F801208B642FCE0101960E9448
:10158000660A8F81F80181878B819C81938782878E
:101590008D819E81958784872796E4E00C942610A0
:1015A000FC01A485B585109779F08C919185892BE4
:1015B0008C93A285B3859C918185809589238C939A
:1015C00088EC90E00E945E0A0895FC01A485B58530
:1015D000109771F08C919185892B8C93A285B3859E
:1015E0008C919185892B8C9388EC90E00E945E0A07
:1015F0000895A7E0B0E0EFEFFAE00C94FF0F7C0154
:101600004B01642F3901402F20E00E94A30A87017B
:101610000F5B1F4FF80110826701F2E4CF0ED11C5F
:10162000F60110825701F3E4AF0EB11CF5011082F0
:10163000F70177866686512CF7018085581650F59C
:10164000652C712CF401E60DF71D6081CE01019629
:101650000E94660A2F81F701E60DF71D218B898113
:101660009A81F301EE0FFF1FEE0DFF1D92A381A3E0
:101670008332910511F4F80108C08632910511F406
:10168000F60103C0899721F4F5018081822B8083C4
:101690005394D2CF2796EFE00C941B10A0E0B0E05B
:1016A000E4E5FBE00C940110EC015B016C0181E4CA
:1016B000C80ED11CF60180807E01F2E4EF0EF11C11
:1016C000F70170808E010D5B1F4FF801908080E064
:1016D0009885891748F4F501E80FF11DE80FF11D11
:1016E000118210828F5FF4CF84B1F6019081892B33
:1016F00084B987B1F7019081892B87B98AB1F80144
:101700009081892B8AB985B1F6019081892B85B9A1
:1017100088B1F7019081892B88B98BB1F80190814C
:10172000892B8BB98AE090E00E945E0A94B1F601A1
:1017300080818095892384B997B1F7018081809554
:10174000892387B99AB1F8018081809589238AB964
:1017500095B1F60180818095892385B998B1F7010B
:1017600080818095892388B99BB1F801808180951B
:1017700089238BB9E090B000D090B1008091B00087
:1017800083608093B00082E08093B1004091B2000A
:1017900080E090E02E853F858217930720F5C0906A
:1017A000B2002C2D241B820F911D03B1081132C0F1
:1017B000F6B0F7102FC029B129112CC010C0212F6D
:1017C00030E0A901440F551FF501E40FF51F6081BA
:1017D0007181672B21F11F5F2885121780F37F2C01
:1017E000802E4C2DD7CFE092B000D092B10020E0F7
:1017F0008885281730F5F501E20FF11DE20FF11D84
:1018000080819181892B21F48E859F8591838083AE
:101810002F5FEECF03B1F6B099B010E0DDCFDE015F
:10182000A40FB51F91960D90BC91A02D4C91DE0197
:10183000A20FB31F51962C91422369F691838083A6
:10184000CACFCDB7DEB7EDE00C941D10EF92FF923A
:101850000F931F93CF93DF93FC019B01F0907C00CB
:1018600000917A0047B118B180917A0086FDFCCFD3
:1018700080E09085891748F4D901A80FB11DA80F01
:10188000B11D1D921C928F5FF4CF97B182A18095FC
:10189000892387B998B182A18095892388B987E87F
:1018A00080937A00E12C81A1E81610F0E12C29C088
:1018B00050E08085581718F5A52FB0E0EF01CA0F4A
:1018C000DB1F8989806480937C0080917A0080642A
:1018D00080937A0080917A0086FDFCCF6091780039
:1018E00070917900AA0FBB1FA20FB31F8D919C911D
:1018F0001197860F971F8D939C935F5FDACFE394C8
:10190000D2CF8085E816A0F4E901CE0DD11DCE0D11
:10191000D11D61A170E0CB0195958795A881B98112
:101920008A0F9B1F0E94710F79836883E394E9CF2C
:10193000F0927C0000937A0018B947B9CDB7DEB7B2
:10194000E6E00C942410A0E2B0E0E9EAFCE00C949C
:1019500007108C017B01D42E8FEF840F823018F496
:10196000C8010E94E50AD80150968C91B7018111F7
:1019700010C0C8010E944E0BC8010E94D00AB2E0FC
:10198000DB123AC0BE016F5F7F4FC8010E944E0B51
:101990000FC0C8010E94260CC8010E94D00AE2E0D4
:1019A000DE122AC0BE016F5F7F4FC8010E94260C65
:1019B00040E0F80180854817F8F4842F90E0880F04
:1019C000991FF701E80FF91F21E030E02C0F3D1FB0
:1019D000820F931FD8011E962D913C911F97DC0119
:1019E0008D919C91281B390B80819181820F931FCF
:1019F000918380834F5FDDCFA096E7E00C942310A6
:101A00002F923F925F926F927F928F929F92AF92AE
:101A1000BF92CF92DF92EF92FF920F931F93CF93DB
:101A2000DF93CDB7DEB7C056D1090FB6F894DEBF4D
:101A30000FBECDBF8C014B015A01522EDA018D91A0
:101A40009C91892B31F0F40180819181892BF1F4F3
:101A500024C0D80118968C9190E0880F991F0E949D
:101A60003910F50191838083009709F4B1C0FC011E
:101A700020E030E0D80118968C9190E028173907C3
:101A800014F7119211922F5F3F4FF4CFE12CF12CFC
:101A90006E01B1E2CB0ED11C21C0F801808590E02F
:101AA000880F991F0E943910D4018D939C93009741
:101AB00009F48EC0FC0120E030E0D80118968C912A
:101AC00090E02817390714F7D8011E968D919C9144
:101AD0001F97819391932F5F3F4FEFCF452DBE010D
:101AE0006F5B7F4FC8010E94A30CF8016084712CCA
:101AF000FE01EF5BFF4FC6019E012F5F3F4F1901B3
:101B000020E030E0261537054CF5E114F10489F0AA
:101B1000DC016D917C91408151816417750748F01B
:101B2000D1016D917C91408151814617570748F052
:101B30000DC040815181DC014D935C93E114F104AF
:101B400079F740815181D1014D935C932F5F3F4FD5
:101B5000B2E02B0E311C32960296D4CFEFEFEE1A84
:101B6000FE0AFAE0EF16F10409F0B8CF9E012F5FEC
:101B70003F4F7901360180E090E0F801208530E0A8
:101B8000821793072CF5D7012D913D917D01B3016B
:101B90006C197D09D501ED91FC91E60FF71F40818D
:101BA00051814217530710F431832083F3012191AF
:101BB00031913F01D401ED91FC91E60FF71F408177
:101BC00051812417350710F4318320830196D5CF36
:101BD000C05ADF4F0FB6F894DEBF0FBECDBFDF9106
:101BE000CF911F910F91FF90EF90DF90CF90BF901A
:101BF000AF909F908F907F906F905F903F902F90CD
:101C000008951F93CF93DF93EC01162F8FEF860F6C
:101C1000823018F0662359F014C021E0AE014E5F07
:101C20005F4FBE01CE010E94000D123051F4AE0193
:101C30004A5F5F4FBE016C5F7F4F20E0CE010E9484
:101C4000000DDF91CF911F910895A0E0B0E0EBE28D
:101C5000FEE00C940510EC018B01B42E842F8D7FD7
:101C600051F48C819D81892B09F497C08E819F81CD
:101C7000892B09F492C08FEF8B0D823050F488814C
:101C80009981892B09F489C08A819B81892B09F468
:101C900084C04B2DB801CE010E94A30C780100E056
:101CA00010E0C12CD12C888590E0C816D9060CF024
:101CB00074C081E0B8120AC0EA81FB81E00FF11F15
:101CC0000190F081E02DA881B9810DC08C819D81AA
:101CD0002E813F81B1100CC0F901E00FF11F01907E
:101CE000F081E02DDC01A00FB11F8D919C9128C0E7
:101CF000FC01E00FF11F40815181E881F981E00F83
:101D0000F11F80819181EE85FF854817590710F4F6
:101D1000CF0104C08E0F9F1F841B950BD901A00F0C
:101D2000B11F2D913C91AA81BB81A00FB11F4D9194
:101D30005C912417350720F0E40FF51FE21BF30B2D
:101D4000E81BF90BA9F0D7012D913C9140E050E040
:101D5000281B390B41095109A8EEB3E00E94E90F95
:101D60009F0140E050E00E94BB0F37FD0AC002C057
:101D700020E030E0293EB3E03B072CF028EE33E0D2
:101D800002C020E030E0F701219331937F01FFEFA3
:101D9000CF1ADF0A0E5F1F4F86CFCDB7DEB7E9E05F
:101DA0000C942110A0E0B0E0E8EDFEE00C94FC0FF4
:101DB000EC018B01822E0E94250E2884E801412C23
:101DC000512C320100E010E0C12CD12C7601312CD5
:101DD000912C58EEA52E53E0B52E921421F1E991E5
:101DE000F991882021F0C5018E1B9F0BFC01E93C75
:101DF000F10524F4E333F10574F002C03324339485
:101E0000DF01A30192010E94F40FC60ED71EE81E47
:101E1000F91E0E0F1F1F939498EE490E93E0591E62
:101E2000611C711CDACF31101EC0492D50E04150A9
:101E3000510924EF31E0429FC001439F900D529F12
:101E4000900D112420919D0130919E012817390792
:101E5000B4F088EE93E0489F9001499F300D589F61
:101E6000300D11240EC0980140E050E0C701B601CA
:101E70000E94990F30939E0120939D0102C020E0A3
:101E800030E0C901CDB7DEB7E2E10C941810CF9372
:101E9000DF93EC018A819B81009711F00E94D110A1
:101EA0008E819F81009711F00E94D11088819981C5
:101EB000009711F00E94D1108C819D81009711F044
:101EC0000E94D110DF91CF910895991B79E004C051
:101ED000991F961708F0961B881F7A95C9F7809569
:101EE0000895AA1BBB1B51E107C0AA1FBB1FA61761
:101EF000B70710F0A61BB70B881F991F5A95A9F7B3
:101F000080959095BC01CD01089597FB072E16F49E
:101F1000009407D077FD09D00E94710F07FC05D00F
:101F20003EF4909581959F4F0895709561957F4FF0
:101F30000895A1E21A2EAA1BBB1BFD010DC0AA1F0A
:101F4000BB1FEE1FFF1FA217B307E407F50720F022
:101F5000A21BB30BE40BF50B661F771F881F991F9D
:101F60001A9469F760957095809590959B01AC01E6
:101F7000BD01CF010895052E97FB1EF400940E9429
:101F8000D20F57FD07D00E94990F07FC03D04EF4E3
:101F90000C94D20F50954095309521953F4F4F4F5F
:101FA0005F4F089590958095709561957F4F8F4F05
:101FB0009F4F0895A29FB001B39FC001A39F700DD2
:101FC000811D1124911DB29F700D811D1124911D41
:101FD00008950E94DA0FA59F900DB49F900DA49FC5
:101FE000800D911D11240895B7FF0C94E90F0E94F4
:101FF000E90F821B930B08952F923F924F925F92AD
:102000006F927F928F929F92AF92BF92CF92DF9208
:10201000EF92FF920F931F93CF93DF93CDB7DEB76D
:10202000CA1BDB0B0FB6F894DEBF0FBECDBF099401
:102030002A88398848885F846E847D848C849B8458
:10204000AA84B984C884DF80EE80FD800C811B8166
:10205000AA81B981CE0FD11D0FB6F894DEBF0FBE95
:10206000CDBFED010895EE0FFF1F0590F491E02D17
:1020700009940F931F93CF93DF938230910510F44F
:1020800082E090E0E0910C02F0910D0220E030E05F
:10209000A0E0B0E0309719F14081518102811381B5
:1020A00048175907C8F08417950769F4109731F05D
:1020B00012960C93129713961C9327C000930C0250
:1020C00010930D0222C02115310519F04217530754
:1020D00018F49A01BD01EF01DF01F801DBCF2115F2
:1020E0003105F9F0281B390B2430310580F48A8141
:1020F0009B816115710521F0FB019383828304C0EC
:1021000090930D0280930C02FE01329644C0FE01B2
:10211000E20FF31F81939193225031093983288371
:102120003AC020910A0230910B02232B41F42091F6
:102130000E0130910F0130930B0220930A0220917F
:102140000C0130910D012115310541F42DB73EB739
:102150004091100150911101241B350BE0910A02AE
:10216000F0910B02E217F307A0F42E1B3F0B281788
:10217000390778F0AC014E5F5F4F2417350748F000
:102180004E0F5F1F50930B0240930A02819391936D
:1021900002C0E0E0F0E0CF01DF91CF911F910F91FD
:1021A0000895CF93DF93009709F481C0FC01329723
:1021B00013821282A0910C02B0910D02109781F44B
:1021C00020813181820F931F20910A0230910B02EE
:1021D0002817390751F5F0930B02E0930A0267C004
:1021E000ED0120E030E0CE17DF0740F44A815B814B
:1021F0009E0141155105F1F0EA01F5CFD383C28369
:1022000040815181840F951FC817D90759F48881DF
:102210009981840F951F0296918380838A819B8187
:10222000938382832115310529F4F0930D02E09305
:102230000C023DC0E901FB83EA8349915991C40F27
:10224000D51FEC17FD0761F480819181840F951FE4
:102250000296E90199838883828193819B838A8393
:10226000E0E0F0E012968D919C911397009719F0A1
:10227000FD01DC01F7CF8D919C9111979D012E5F9F
:102280003F4F820F931F20910A0230910B022817B3
:10229000390769F4309729F410920D0210920C025C
:1022A00002C013821282B0930B02A0930A02DF9144
:1022B000CF91089510E0C8E5D0E004C0FE010E946F
:0E22C00033102196C935D107C9F7F894FFCF26
:1022CE000F00F4010400D0070401080200000E0202
:1022DE002000200000010203040506FF9C01B50149
:1022EE00CF01EA0107022602470269028E02B502F9
:0E22FE00DE020A030E0F101112476F210000BE
:00000001FF
