S01600006D617A655F776974686C6F6F70732E7372656319
S11300000C943C000C9459000C9459000C94590025
S11300100C9459000C9459000C9459000C945900F8
S11300200C9459000C94C60E0C9459000C9459006D
S11300300C9459000C9459000C9459000C945900D8
S11300400C9459000C9459000C9459000C945900C8
S11300500C9459000C9459000C9459000C945900B8
S11300600C9459000C945900000000000000001F7B
S11300701F1F1F1F1F1FA00F11241FBECFEFD8E08B
S1130080DEBFCDBF11E0A0E0B1E0E4E4FDE202C0D8
S113009005900D92A032B107D9F726E0A0E2B1E0B5
S11300A001C01D92AE37B207E1F70E947C090C949F
S11300B095160C94000060E088E690E00E94D00C55
S11300C061E089E690E00E94D00C62E08AE690E06C
S11300D00E94D00C63E08BE690E00E94D00C64E0B8
S11300E08CE690E00E94D00C65E08DE690E00E94E2
S11300F0D00C66E08EE690E00E94D00C0E94430D86
S113010008950F931F93CF93DF93C0917A01D091F9
S11301107B01C330D1050CF455C08E010250110986
S1130120F801E45AF94F8081823409F04BC0FE0192
S1130130E45AF94FAE01475A594F20E030E092910A
S11301409C3441F0923519F0923449F406C0265A91
S11301503F4F05C0225F3E4F02C02C543F4FE4176F
S1130160F50769F784E090E09093BF018093BE01A6
S1130170C90168E671E00E94C0148A35910581F0D6
S11301801CF4892B41F01AC0843B910571F08E3028
S1130190914081F013C0C75AD94F83E588830EC0BC
S11301A0C75AD94F82E5888309C0C75AD94F82E418
S11301B0888304C0C75AD94F8CE4888310937B0189
S11301C000937A01DF91CF911F910F9108952CEF45
S11301D031E04CEA57E0C9018C5B9F4FF901119261
S11301E01192E817F907D9F7285C3F4F2417350710
S11301F091F782E290E09093BD018093BC018AE183
S113020090E09093BF018093BE01089520917A01FC
S113021030917B01F901E45AF94F8083833509F069
S113022054C180910A0190910B018131910589F5A6
S113023040910801509109014131510551F5E6ED14
S1130240F5E080819181019691838083C901880FB3
S1130250991FFC01E054FE4F41E150E0518340837B
S1130260FC01E058FE4F518340832F5F3F4F309392
S11302707B0120937A01EEE9F5E08081918101967A
S1130280918380838FE090E090930B0180930A0127
S11302900895A90141505109FA01EE0FFF1FE054DE
S11302A0FE4F608171818617970709F084C06091C1
S11302B0080170910901440F551FFA01E058FE4FDF
S11302C04081518146175707DCF54CE1489FF00106
S11302D0499FF00D1124DF01A60FB71FAA0FBB1F02
S11302E0A450BE4F4D915C9111974F5F5F4F4D935A
S11302F05C93A901440F551FDA01A054BE4F8D939E
S11303009C93DA01A058BE4F6D937C93CB01019668
S11303102F5F3F4F30937B0120937A01E80FF91F41
S1130320EE0FFF1FE450FE4F80819181019691836F
S113033080836E5F7F4F7093090160930801089575
S11303404CE1489FF001499FF00D1124DF01A60FF5
S1130350B71FAA0FBB1FA450BE4F4D915C911197BC
S11303604F5F5F4F4D935C93A901440F551FDA0112
S1130370A054BE4F8D939C93DA01A058BE4F6D9349
S11303807C93CB0101972F5F3F4F30937B012093E8
S11303907A01E80FF91FEE0FFF1FE450FE4F808132
S11303A09181019691838083625071097093090150
S11303B0609308010895681779070CF043C04091D1
S11303C0080150910901ACE1A89FF001A99FF00D2B
S11303D01124E40FF51FEE0FFF1FE450FE4F608160
S11303E071816F5F7F4F71836083B901660F771FDF
S11303F0FB01E054FE4F91838083FB01E058FE4FE4
S113040051834083BC016F5F7F4F2F5F3F4F309319
S11304107B0120937A01A69FF001A79FF00D112480
S1130420E40FF51FEE0FFF1FE450FE4F20813181D2
S11304302F5F3F4F31832083029690930B0180936B
S11304400A0108954091080150910901ACE1A89F67
S1130450F001A99FF00D1124E40FF51FEE0FFF1F0B
S1130460E450FE4F608171816F5F7F4F71836083C1
S1130470B901660F771FFB01E054FE4F918380831F
S1130480FB01E058FE4F51834083BC016150710968
S11304902F5F3F4F30937B0120937A01A69FF00199
S11304A0A79FF00D1124E40FF51FEE0FFF1FE4507A
S11304B0FE4F208131812F5F3F4F3183208302978C
S11304C090930B0180930A010895823509F020C1AD
S11304D0B90161507109FB01EE0FFF1FE058FE4F97
S11304E04081518180910801909109014817590771
S11304F009F084C080910A0190910B01660F771F67
S1130500FB01E054FE4F6081718168177907DCF5C7
S11305106CE1689FF001699FF00D1124DF01A40FC5
S1130520B51FAA0FBB1FA450BE4F6D917C911197AC
S11305306F5F7F4F6D937C93B901660F771FDB016B
S1130540A054BE4F8D939C93DB01A058BE4F4D9396
S11305505C93CA0101972F5F3F4F30937B01209337
S11305607A01E80FF91FEE0FFF1FE450FE4F808160
S113057091810196918380834250510950930901DE
S11305804093080108956CE1689FF001699FF00DA4
S11305901124DF01A40FB51FAA0FBB1FA450BE4F27
S11305A06D917C9111976F5F7F4F6D937C93B9012F
S11305B0660F771FDB01A054BE4F8D939C93DB0124
S11305C0A058BE4F4D935C93CA0101962F5F3F4FD5
S11305D030937B0120937A01E80FF91FEE0FFF1F80
S11305E0E450FE4F808191810196918380834E5F18
S11305F05F4F509309014093080108954817590724
S11306000CF043C040910A0150910B01ACE1A49F4E
S1130610F001A59FF00D1124E80FF91FEE0FFF1F45
S1130620E450FE4F608171816F5F7F4F71836083FF
S1130630B901660F771FFB01E054FE4F51834083DD
S1130640FB01E058FE4F91838083BA016F5F7F4FB7
S11306502F5F3F4F30937B0120937A01A69FF001D7
S1130660A79FF00D1124E80FF91FEE0FFF1FE450B0
S1130670FE4F808191810196918380834E5F5F4F0D
S113068050930B0140930A01089540910A0150913F
S11306900B01ACE1A49FF001A59FF00D1124E80F1C
S11306A0F91FEE0FFF1FE450FE4F608171816F5FF1
S11306B07F4F71836083B901660F771FFB01E0549C
S11306C0FE4F51834083FB01E058FE4F91838083AA
S11306D0BA01615071092F5F3F4F30937B01209322
S11306E07A01A69FF001A79FF00D1124E80FF91FCE
S11306F0EE0FFF1FE450FE4F80819181019691839C
S113070080834250510950930B0140930A0108958C
S11307108C3409F020C1B90161507109FB01EE0F5D
S1130720FF1FE058FE4F4081518180910801909154
S113073009014817590709F084C080910A01909172
S11307400B01660F771FFB01E054FE4F608171813E
S113075068177907DCF56CE1689FF001699FF00D7B
S11307601124DF01A40FB51FAA0FBB1FA450BE4F55
S11307706D917C9111976F5F7F4F6D937C93B9015D
S1130780660F771FDB01A054BE4F8D939C93DB0152
S1130790A058BE4F4D935C93CA0101962F5F3F4F03
S11307A030937B0120937A01E80FF91FEE0FFF1FAE
S11307B0E450FE4F808191810196918380834E5F46
S11307C05F4F509309014093080108956CE1689FBD
S11307D0F001699FF00D1124DF01A40FB51FAA0FCA
S11307E0BB1FA450BE4F6D917C9111976F5F7F4FDB
S11307F06D937C93B901660F771FDB01A054BE4F44
S11308008D939C93DB01A058BE4F4D935C93CA011A
S113081001972F5F3F4F30937B0120937A01E80FBC
S1130820F91FEE0FFF1FE450FE4F80819181019666
S113083091838083425051095093090140930801E8
S11308400895481759070CF043C040910A0150918C
S11308500B01ACE1A49FF001A59FF00D1124E80F5A
S1130860F91FEE0FFF1FE450FE4F608171816F5F2F
S11308707F4F71836083B901660F771FFB01E054DA
S1130880FE4F51834083FB01E058FE4F91838083E8
S1130890BA01615071092F5F3F4F30937B01209360
S11308A07A01A69FF001A79FF00D1124E80FF91F0C
S11308B0EE0FFF1FE450FE4F8081918101969183DA
S11308C080834250510950930B0140930A010895CB
S11308D040910A0150910B01ACE1A49FF001A59F46
S11308E0F00D1124E80FF91FEE0FFF1FE450FE4F27
S11308F0608171816F5F7F4F71836083B901660F7F
S1130900771FFB01E054FE4F51834083FB01E05805
S1130910FE4F91838083BA016F5F7F4F2F5F3F4FFC
S113092030937B0120937A01A69FF001A79FF00DDD
S11309301124E80FF91FEE0FFF1FE450FE4F8081D2
S113094091810196918380834E5F5F4F50930B0199
S113095040930A010895B90161507109FB01EE0F3A
S1130960FF1FE058FE4F4081518180910801909112
S113097009014817590709F08DC080910A01909127
S11309800B01660F771FFB01E054FE4F60817181FC
S1130990861797070CF03FC0B901660F771FFB015C
S11309A0E054FE4F91838083FB01E058FE4F518356
S11309B040832F5F3F4F30937B0120937A016CE19A
S11309C0689FF001699FF00D1124E40FF51FEE0FED
S11309D0FF1FE450FE4F208131812F5F3F4F318351
S11309E020839C012F5F3F4F629FF001639FF00DB6
S11309F01124E40FF51FEE0FFF1FE450FE4F20817A
S1130A0031812F5F3F4F31832083029690930B01F6
S1130A1080930A010895B901660F771FFB01E05422
S1130A20FE4F91838083FB01E058FE4F5183408346
S1130A302F5F3F4F30937B0120937A016CE1689FD5
S1130A40F001699FF00D1124E40FF51FEE0FFF1F55
S1130A50E450FE4F208131812F5F3F4F318320834B
S1130A609C0121503109629FF001639FF00D112414
S1130A70E40FF51FEE0FFF1FE450FE4F208131817C
S1130A802F5F3F4F31832083029790930B01809314
S1130A900A010895481759070CF040C060910A01F3
S1130AA070910B01A901440F551FFA01E054FE4F48
S1130AB071836083FA01E058FE4F918380832F5F36
S1130AC03F4F30937B0120937A012CE1269FF00164
S1130AD0279FF00D1124DF01A80FB91FAA0FBB1F18
S1130AE0A450BE4F2D913C9111972F5F3F4F2D93F2
S1130AF03C939C0121503109E20FF31FEE0FFF1FBD
S1130B00E450FE4F208131812F5F3F4F318320839A
S1130B1002979093090180930801089560910A0156
S1130B2070910B01A901440F551FFA01E054FE4FC7
S1130B3071836083FA01E058FE4F918380832F5FB5
S1130B403F4F30937B0120937A012CE1269FF001E3
S1130B50279FF00D1124DF01A80FB91FAA0FBB1F97
S1130B60A450BE4F2D913C9111972F5F3F4F2D9371
S1130B703C939C012F5F3F4FE20FF31FEE0FFF1FCB
S1130B80E450FE4F208131812F5F3F4F318320831A
S1130B90029690930901809308010895FF920F93A0
S1130BA01F93CF93DF934130510509F07BC020910F
S1130BB00A0130910B012131310539F4E09108012A
S1130BC0F0910901719709F470C0E0917A01F091F4
S1130BD07B013197DF01AA0FBB1FA054BE4F0D90BC
S1130BE0BC91A02D2A173B0781F5A0910801B09173
S1130BF00901EE0FFF1FE058FE4F0190F081E02D38
S1130C00EA17FB078CF4CCE1C29FF001C39FF00DFF
S1130C1011241196AE0FBF1FAA0FBB1FA450BE4FC5
S1130C200D90BC91A02D43C0CCE1C29FF001C39FA5
S1130C30F00D11241197AE0FBF1FAA0FBB1FA450B4
S1130C40BE4F0D90BC91A02D32C0A217B307ACF4D7
S1130C502F5F3F4FACE1A29FF001A39FF00D112441
S1130C602091080130910901E20FF31FEE0FFF1FDD
S1130C70E450FE4FA081B1811AC021503109ACE18A
S1130C80A29FF001A39FF00D11242091080130913F
S1130C900901E20FF31FEE0FFF1FE450FE4FA08186
S1130CA0B18105C0AFEFBFEF02C0A0E0B0E061309A
S1130CB0710509F07FC0E0917A01F0917B013197D1
S1130CC0EF01CC0FDD1FC058DE4F08811981209140
S1130CD008013091090102171307D9F520910A017F
S1130CE030910B01EF01CC0FDD1FC054DE4F099092
S1130CF0D881C02DC217D307B4F40F2EFCE1FF2E08
S1130D00F02DF29EE001F39ED00D112498012150A4
S1130D103109C20FD31FCC0FDD1FC450DE4F099021
S1130D20D881C02D1FC10F2EFCE1FF2EF02DF29EA5
S1130D30E001F39ED00D112498012F5F3F4FC20FA5
S1130D40D31FCC0FDD1FC450DE4F0990D881C02DB6
S1130D5009C102171307BCF4C0910A01D0910B0119
S1130D6021961CE11C9FF0011D9FF00D1124E20F40
S1130D70F31FEE0FFF1FE450FE4FC081D181019796
S1130D8009F0F7C066C0C0910A01D0910B01219708
S1130D901CE11C9FF0011D9FF00D1124E20FF31FB5
S1130DA0EE0FFF1FE450FE4FC081D181019709F07F
S1130DB0E0C065C0019709F0C7C0E0917A01F091E5
S1130DC07B013197EF01CC0FDD1FC058DE4F8881C6
S1130DD09981209108013091090182179307A1F5A7
S1130DE0CFEFDFEF01C0980180910A0190910B01D0
S1130DF0EE0FFF1FE054FE4F0190F081E02DE81745
S1130E00F9078CF41CE1189FF001199FF00D1124CF
S1130E102F5F3F4FE20FF31FEE0FFF1FE450FE4F13
S1130E2080819181A2C01CE1189FF001199FF00DEF
S1130E30112421503109E20FF31FEE0FFF1FE4507C
S1130E40FE4F8081918191C082179307B4F4CFEF54
S1130E50DFEF80910A0190910B0101971CE1189F2B
S1130E60F001199FF00D1124E20FF31FEE0FFF1F85
S1130E70E450FE4F8081918178C0CFEFDFEF809105
S1130E800A0190910B0101961CE1189FF001199F32
S1130E90F00D1124E20FF31FEE0FFF1FE450FE4F7D
S1130EA08081918162C0C817D907ACF041305105E7
S1130EB069F4A817B9072CF08CE40E9406018CE4AD
S1130EC05CC083E50E94060183E557C08CE40E9460
S1130ED006018CE452C04130510569F4A817B907E2
S1130EE02CF082E50E94060182E547C083E50E945A
S1130EF0060183E542C082E50E94060182E53DC009
S1130F004130510569F4A817B9072CF08CE40E940C
S1130F1006018CE432C083E50E94060183E52DC0FE
S1130F208CE40E9406018CE428C0452B29F482E558
S1130F300E94060182E521C0AC17BD0794F082E54A
S1130F400E94060182E519C04130510529F483E568
S1130F500E94060183E511C082E40E94060182E436
S1130F600CC00BC0019729F43ECF6130710541F6E6
S1130F709ACF61307105C9F2E7CFDF91CF911F910C
S1130F800F91FF900895EF92FF920F931F93CF93C9
S1130F90DF93CDB7DEB72A970FB6F894DEBF0FBE46
S1130FA0CDBF8C017C018AE0E80EF11C8AE0ECE004
S1130FB0F1E0DE01119601900D928A95E1F7F801B6
S1130FC0219131918F01A7E4B4E10E941515969502
S1130FD087959695879596958795E1E0F0E0EC0FD7
S1130FE0FD1FE80FF91F80810E94D30C0E151F0509
S1130FF0E9F62A960FB6F894DEBF0FBECDBFDF9197
S1131000CF911F910F91FF90EF90089580910A0165
S113101090910B012CE1289FF001299FF00D1124E0
S11310208091080190910901E80FF91FEE0FFF1F4D
S1131030E450FE4F85E090E09183808308952F92E1
S11310403F924F925F926F927F928F929F92AF9254
S1131050BF92CF92DF92EF92FF920F931F93CF93A1
S1131060DF93CDB7DEB72A970FB6F894DEBF0FBE75
S1131070CDBF812C912C540100E010E00F2EF0E143
S11310804F2EF7E25F2E612C712CF02D0F2EF4E120
S1131090CF2ED12CF02D0F2EF4EC3F2EF02D222448
S11310A02A9461E0CE0101960E94660F805D97400C
S11310B07C01092E000CAA0BBB0B880E991EAA1EDC
S11310C0BB1EC701801B910B8C01000F111F080F61
S11310D0191F112314F40F5F1F4F15950795C501B0
S11310E0B401A30192010E94F614200F311FC7011D
S11310F0B6010E94C014260F371F2D33310514F09A
S11311002CE330E0C901843C2FEF920714F4832DC3
S1131110922D992334F46CE370E0CC960E94800EF7
S113112008C06CE370E0681B790B8CE390E00E94CC
S1131130800E8B819C818436910550F48D819E8133
S11311408436910528F48F8198858436910560F062
S113115089819A81893C910538F489859A85893CED
S1131160910510F487019DCF2A960FB6F894DEBF3F
S11311700FBECDBFDF91CF911F910F91FF90EF90E4
S1131180DF90CF90BF90AF909F908F907F906F90A3
S11311905F904F903F902F9008958C3429F08235C2
S11311A071F0823409F516C060E570E080EB9FEFC2
S11311B00E94800E88EC90E00E940E0F089560EB70
S11311C07FEF80E590E00E94800E88EC90E00E9422
S11311D00E0F089560EB7FEF80E590E00E94800E93
S11311E080E991E00E940E0F08950F931F93CF930F
S11311F0DF93CDB7DEB72A970FB6F894DEBF0FBEE4
S1131200CDBF80ED97E00E949C0F0E945B0061E0DF
S113121080E00E94CA0D84EF91E00E940E0F0E94AC
S1131220430D61E080E00E94CA0D88EE93E00E94C5
S11312300E0F82E00E94C30E8823D9F382E00E943D
S1131240AF0E88EE93E00E940E0F0CEE1FEF0832F3
S1131250110538F068ED7FEF88E290E00E94800E7F
S113126006C068E270E088ED9FEF0E94800E81E086
S11312700E94600F84E190E00E940E0F0F5F1F4FE9
S11312800C33110521F760E070E080E090E00E94EB
S1131290800E19C061E0CE0101960E94660F8C0198
S11312A00E94430DB80180E090E00E94A70D61E028
S11312B080E00E94CA0DCE0101960E94C30784E615
S11312C090E00E940E0F80E10E94C30E882311F368
S11312D080E10E94AF0E0E94430D8BE191E00E94D9
S11312E0520D2A960FB6F894DEBF0FBECDBFDF9124
S11312F0CF911F910F910895CF93DF93CDB7DEB7B0
S113130062970FB6F894DEBF0FBECDBF0E94E70010
S11313100E94F5080E94460F0E94850B6B877C870C
S11313208D879E87F12C0F2EF2EC4F2E552453946B
S1131330612C712CF02D0F2EF4E08F2EF7E19F2EEF
S1131340F3E0AF2EB12CF02D0E941F0862E370E091
S113135082E390E00E94800E82E390E00E940E0FF0
S113136061E0CE0101960E94660F01E089819A81B5
S11313708536910508F40F2D11E089859A85853607
S1131380910508F41F2D68E270E088E290E00E9465
S1131390800E88EC90E00E940E0F61E0CE01019671
S11313A00E94660F8B819C81893C910568F42D8194
S11313B03E81293C310550F441E02F813885293C98
S11313C0310528F44F2D03C041E001C041E08935C7
S11313D0924058F08D819E818935924030F08F8102
S11313E098858935924008F053C050E0612F70E031
S11313F0802F90E00E94CE050E94CD080E948100BB
S11314000E94460F6F87788B898B9A8B0E94430DBD
S11314106F85788989899A890E94850B9B01AC0123
S11314206B857C858D859E850E94E20A0E944F0B08
S11314306B877C878D879E87A30192010E94F61497
S1131440CA01B9010E94A70D6B857C858D859E8597
S1131450A50194010E94F6148901223031057CF023
S113146041E050E060E070E080E090E00E94CE0552
S11314700E948100015011090130110589F70E9471
S1131480460F0E94850B6B877C878D879E875CCF78
S11314900E9406080E94430D1092BF011092BE01E3
S11314A080917A0190917B01181619060CF087C07F
S11314B080E090E0FC01E45AF94F80810E94D30C53
S11314C08091BE019091BF0101969093BF018093DA
S11314D0BE0120917A0130917B018217930754F366
S11314E06EC062E370E082E390E00E94800E82E3CB
S11314F090E00E940E0F0150110999F706C060E0B8
S113150070E080E090E00E94800E80E10E94C30EB3
S11315108823A9F388EE93E00E940E0F80917A014C
S113152090917B011816190664F50F2EFCE5EF2E39
S1131530F6E0FF2EF02D00E010E00E941F0862E3A9
S113154070E082E390E00E94800E82E390E00E94CB
S11315500E0F68E270E088E290E00E94800E88EC52
S113156090E00E940E0FF70181917F010E94CD0847
S11315700F5F1F4F80917A0190917B010817190723
S1131580E4F20E941F0807E010E062E370E082E3E7
S113159090E00E94800E82E390E00E940E0F0150C2
S11315A0110999F706C060E070E080E090E00E94C5
S11315B0800E80E10E94C30E8823A9F3AFCF04E01C
S11315C010E08FCF5058BB27AA270E94FA0A0C9428
S11315D0D90B0E94CB0B38F00E94D20B20F039F4C7
S11315E09F3F19F426F40C94C80B0EF4E095E7FB26
S11315F00C94C20BE92F0E94EA0B58F3BA17620746
S113160073078407950720F079F4A6F50C940C0C65
S11316100EF4E0950B2EBA2FA02D0B01B901900109
S11316200C01CA01A0011124FF27591B99F0593F4D
S113163050F4503E68F11A16F040A22F232F342F95
S11316404427585FF3CF469537952795A795F040E3
S11316505395C9F77EF41F16BA0B620B730B840BF8
S1131660BAF09150A1F0FF0FBB1F661F771F881FB0
S1131670C2F70EC0BA0F621F731F841F48F4879508
S113168077956795B795F7959E3F08F0B0CF9395FA
S1131690880F08F09927EE0F9795879508950E9473
S11316A0560B6894B1110C940D0C08950E94F20B22
S11316B088F09F5798F0B92F9927B751B0F0E1F00F
S11316C0660F771F881F991F1AF0BA95C9F714C0BF
S11316D0B13091F00E940C0CB1E008950C940C0C04
S11316E0672F782F8827B85F39F0B93FCCF38695F8
S11316F077956795B395D9F73EF490958095709555
S113170061957F4F8F4F9F4F0895E89409C097FBD1
S11317103EF490958095709561957F4F8F4F9F4FC4
S11317209923A9F0F92F96E9BB279395F695879508
S113173077956795B795F111F8CFFAF4BB0F11F4CB
S113174060FF1BC06F5F7F4F8F4F9F4F16C0882372
S113175011F096E911C0772321F09EE8872F762FA8
S113176005C0662371F096E8862F70E060E02AF0E9
S11317709A95660F771F881FDAF7880F96958795D5
S113178097F9089597F99F6780E870E060E00895FD
S11317909FEF80EC089500240A9416161706180685
S11317A00906089500240A94121613061406050661
S11317B00895092E0394000C11F4882352F0BB0FF2
S11317C040F4BF2B11F460FF04C06F5F7F4F8F4F55
S11317D09F4F089557FD9058440F551F59F05F3F90
S11317E071F04795880F97FB991F61F09F3F79F03F
S11317F087950895121613061406551FF2CF4695C1
S1131800F1DF08C0161617061806991FF1CF869542
S11318107105610508940895E894BB276627772726
S1131820CB0197F9089581E090E06F9364E06A95A5
S1131830F1F76F910197C9F708950F931F93CF9311
S1131840DF931AB157985A98289AC0E0D0E00E94C2
S1131850130C5C9A0E94130C09B15C980E94130C3F
S11318605C9A0E94130C5C98249607FF10C0AE018A
S113187060E070E08091200190912101A09122010B
S1131880B0912301481759076A077B0700F31AB977
S1131890DF91CF911F910F91089595B1282F217059
S11318A030E0220F331F482F467068E0469FA001A6
S11318B01124242B9D7C292B25B99BB188708295FA
S11318C0807F9F77892B8BB95C9A0E94130C5C985C
S11318D00E94130C0895A0E0B0E0E1E7FCE00C9452
S11318E04215C82FD62EE42E80917C01811105C0AB
S11318F081E080937C010E94DB0C0E941D0C14B1DA
S1131900D5B1FAB00BB12898DD2011F05A9A01C074
S11319105A9894B1926394B9579A81E0E81629F0E1
S11319208C2F82958F700E944D0C8C2F8F700E948B
S11319304D0CFAB80BB914B9D5B9CDB7DEB7E7E099
S11319400C945E1542E060E00E946B0C089542E046
S113195061E00E946B0C0895A1E0B0E0E2EBFCE0D2
S11319600C9443158C01660F660F660FE12CF12C65
S11319708E2D860F806469830E94A20CF801EE0DFF
S1131980FF1D84910E94A70C8FEFE81AF80A698161
S1131990E8E0EE16F10461F72196E6E00C945F1599
S11319A00E94AC0C08950E94A70C089541E060E0E9
S11319B00E946B0C089580E197E2A0E0B0E0809370
S11319C0200190932101A0932201B0932301529A04
S11319D0209A549A8EE190E00E940E0F83E00E94B8
S11319E0D60C86E090E00E940E0F83E00E94D60C95
S11319F082E090E00E940E0F83E00E94D60C82E009
S1131A0090E00E940E0F82E00E94D60C82E090E0EB
S1131A100E940E0F88E20E94A20C88E00E94A20C91
S1131A2081E00E94A20C86E00E94A20C8CE00E943D
S1131A30A20C089581E00E94A20C8091260190914D
S1131A402701892BF9F060E0A0E2262F30E07091A5
S1131A5000018091010190E00197789FA001799F96
S1131A60500D1124241735074CF4E0912601F09110
S1131A702701E20FF31FA0836F5FE7CF10922401C9
S1131A801092250108950E941A0D0895CF93DF93B3
S1131A90EC018991882319F00E94A70CFACFDF91F9
S1131AA0CF9108950E94460D0895AAE0B0E0EBE5B9
S1131AB0FDE00C9441151AE05AE0C52ED12CE12C1E
S1131AC0F12C062FA70196010E94D414CA01B90172
S1131AD01150E1E0F0E0EC0FFD1FE10FF11D005D9E
S1131AE02AE0629F001911240083611571058105A4
S1131AF0910539F71A3058F4E1E0F0E0EC0FFD1FDE
S1131B00E10FF11D80810E94A70C1F5FF3CF2A967D
S1131B10E8E00C945D15CF92DF92EF92FF926B0197
S1131B207C0197FF0BC0F094E094D094C094C11C46
S1131B30D11CE11CF11C8DE20E94A70CC701B60167
S1131B400E94550DFF90EF90DF90CF9008950E9472
S1131B508B0D0895A5E0B0E0E0EBFDE00C94461594
S1131B60182F80E8898380EC8A8384E98B8384ED51
S1131B708C83FE01E60FF11D8181810F6D830E942C
S1131B80A20C109324016D81609325012596E3E056
S1131B900C9462150E94AA0D0895883058F491E0BF
S1131BA001C0990F8A95EAF7892FAAE2B0E0EBE227
S1131BB0F0E021C08E3060F498EF980F81E001C00E
S1131BC0880F9A95EAF7A4E2B0E0E5E2F0E013C0EA
S1131BD0853160F492EF980F81E001C0880F9A95E7
S1131BE0EAF7A7E2B0E0E8E2F0E005C080E0A0E0B8
S1131BF0B0E0E0E0F0E06F3F19F49081982709C06D
S1131C00662319F09081982B04C02081982F909519
S1131C10922390839C91982B9C93089583EF8093B7
S1131C20B00084BD82E08093B10085BD1092B40001
S1131C301092B30018BC17BC60E086E00E94CD0D82
S1131C4060E085E00E94CD0D60E08BE00E94CD0D48
S1131C5060E083E00E94CD0D089580917D018111A3
S1131C6005C081E080937D010E940E0E0895CF93FC
S1131C70DF93EC010E942D0ED7FF05C0D195C195CD
S1131C80D10981E001C080E0CF3FD10519F014F003
S1131C90CFEFD0E0882319F018BCC7BD02C0C8BD7F
S1131CA017BCDF91CF910895CF93DF93EC010E948D
S1131CB02D0ED7FF05C0D195C195D10981E001C092
S1131CC080E0CF3FD10519F014F0CFEFD0E08823A6
S1131CD029F01092B400C093B30004C0C093B400C0
S1131CE01092B300DF91CF910895CF93DF93EB016E
S1131CF00E94370ECE010E94540EDF91CF910895B9
S1131D000E94750E089584B18D7C84B985B1826377
S1131D1085B985E090E06F9364E06A95F1F76F917F
S1131D200197C9F7089580917E01811105C081E072
S1131D3080937E010E94830E0895CF93C82F0E9442
S1131D40930E83B18C23E9F38AE090E00E940E0F96
S1131D5083B18C23B1F383B18C23CF9108950E9476
S1131D609D0E0895A1E0B0E0E8EBFEE00C94471569
S1131D7089830E94930E93B190958981892321963A
S1131D80E2E00C9463150E94B20E08952F928F9393
S1131D909F932FB680912F019091300101968093EB
S1131DA02F019093300190E080913101891F80933D
S1131DB03101909129019C5F909329018091280120
S1131DC080519742C0F0909329018093280180911B
S1131DD02A0190912B01019680932A0190932B0163
S1131DE090E080912C01891F80932C0180912D011A
S1131DF0891F80932D012FBE9F918F912F9018954D
S1131E0028EE33E0019748F0F9016F9364E06A9596
S1131E10F1F76F913197C9F7F5CF08950E94000F3C
S1131E200895E0E7F0E080818E7F8083A0EBB0E04E
S1131E308C9183608C93A1EBB0E08C91807F8C9328
S1131E408C9182608C93B89A80818160808378942D
S1131E50089580917F01811105C081E080937F0105
S1131E600E94110F08950E94290FE0E7F0E080819D
S1131E708E7F808360912A0170912B0180912C01C7
S1131E8090912D0120812160208308950E94330FB9
S1131E9008950E94290FE0E7F0E080818E7F80831F
S1131EA010922A0110922B0110922C0110922D01F4
S1131EB01092290110922801808181608083089505
S1131EC0682F82E391E00E9448130895462F20E092
S1131ED0BC0182E391E00E94191408950F93CF93FB
S1131EE0DF9300D000D01F92CDB7DEB79C0185E010
S1131EF0E6E1F1E0DE01119601900D928A95E1F799
S1131F00662311F00FEF01C003E145E0BE016F5FEE
S1131F107F4F82E391E00E94401082E391E00E94AF
S1131F2017100E94490F0F900F900F900F900F9071
S1131F30DF91CF910F91089560E00E946E0F089594
S1131F4082E391E00E948E1408956F9364E06A9591
S1131F50F1F76F910197C9F70895FC01118210827E
S1131F6013821282158214821682683068F489E220
S1131F7090E0918380838BE290E0938382838AE272
S1131F8090E0958384831FC06E3070F483E290E008
S1131F909183808385E290E09383828384E290E05E
S1131FA09583848368500FC0653198F486E290E08D
S1131FB09183808388E290E09383828387E290E038
S1131FC0958384836E5081E001C0880F6A95EAF797
S1131FD086830895A7E0B0E0E0EFFFE00C94451598
S1131FE08C01FC01118210821382128215821482E8
S1131FF017821682613118F080E1808702C0FC01EB
S11320006087F801208B642FCE0101960E94AD0FEA
S11320108F81F80181878B819C81938782878D8151
S11320209E81958784872796E4E00C946115FC01D2
S1132030A485B585109779F08C919185892B8C9323
S1132040A285B3859C918185809589238C9388ECA6
S113205090E00E94A50F0895FC01A485B585109712
S113206071F08C919185892B8C93A285B3858C9189
S11320709185892B8C9388EC90E00E94A50F08959C
S1132080A7E0B0E0E6E4F0E10C943A157C014B01E2
S1132090642F3901402F20E00E94EA0F87010F5B73
S11320A01F4FF80110826701F2E4CF0ED11CF60134
S11320B010825701F3E4AF0EB11CF5011082F70151
S11320C077866686512CF7018085581650F5652C65
S11320D0712CF401E60DF71D6081CE0101960E947A
S11320E0AD0F2F81F701E60DF71D218B89819A81B0
S11320F0F301EE0FFF1FEE0DFF1D92A381A38332A8
S1132100910511F4F80108C08632910511F4F60125
S113211003C0899721F4F5018081822B8083539435
S1132120D2CF2796EFE00C945615A0E0B0E0EBE98F
S1132130F0E10C943C15EC015B016C0181E4C80EE8
S1132140D11CF60180807E01F2E4EF0EF11CF70150
S113215070808E010D5B1F4FF801908080E09885A0
S1132160891748F4F501E80FF11DE80FF11D1182FC
S113217010828F5FF4CF84B1F6019081892B84B9EA
S113218087B1F7019081892B87B98AB1F8019081D1
S1132190892B8AB985B1F6019081892B85B988B1DB
S11321A0F7019081892B88B98BB1F8019081892B33
S11321B08BB98AE090E00E94A50F94B1F60180816A
S11321C08095892384B997B1F7018081809589230B
S11321D087B99AB1F8018081809589238AB995B12C
S11321E0F60180818095892385B998B1F7018081B2
S11321F08095892388B99BB1F801808180958923D2
S11322008BB9E090B000D090B1008091B0008360B1
S11322108093B00082E08093B1004091B20080E0EE
S113222090E02E853F858217930720F5C090B20079
S11322302C2D241B820F911D03B1081132C0F6B05E
S1132240F7102FC029B129112CC010C0212F30E064
S1132250A901440F551FF501E40FF51F6081718139
S1132260672B21F11F5F2885121780F37F2C802EA6
S11322704C2DD7CFE092B000D092B10020E08885F9
S1132280281730F5F501E20FF11DE20FF11D8081F1
S11322909181892B21F48E859F85918380832F5F83
S11322A0EECF03B1F6B099B010E0DDCFDE01A40F9C
S11322B0B51F91960D90BC91A02D4C91DE01A20FFB
S11322C0B31F51962C91422369F691838083CACF20
S11322D0CDB7DEB7EDE00C945815EF92FF920F9353
S11322E01F93CF93DF93FC019B01F0907C0000913E
S11322F07A0047B118B180917A0086FDFCCF80E066
S11323009085891748F4D901A80FB11DA80FB11DF4
S11323101D921C928F5FF4CF97B182A1809589237F
S113232087B998B182A18095892388B987E8809379
S11323307A00E12C81A1E81610F0E12C29C050E0CC
S11323408085581718F5A52FB0E0EF01CA0FDB1FE1
S11323508989806480937C0080917A008064809372
S11323607A0080917A0086FDFCCF609178007091AC
S11323707900AA0FBB1FA20FB31F8D919C911197D7
S1132380860F971F8D939C935F5FDACFE394D2CF30
S11323908085E816A0F4E901CE0DD11DCE0DD11D26
S11323A061A170E0CB0195958795A881B9818A0FC9
S11323B09B1F0E94AC1479836883E394E9CFF09265
S11323C07C0000937A0018B947B9CDB7DEB7E6E0D0
S11323D00C945F15A0E2B0E0E0EFF1E10C9442153B
S11323E08C017B01D42E8FEF840F823018F4C80146
S11323F00E942C10D80150968C91B701811110C005
S1132400C8010E949510C8010E941710B2E0DB12A7
S11324103AC0BE016F5F7F4FC8010E9495100FC084
S1132420C8010E946D11C8010E941710E2E0DE127B
S11324302AC0BE016F5F7F4FC8010E946D1140E04A
S1132440F80180854817F8F4842F90E0880F991FCD
S1132450F701E80FF91F21E030E02C0F3D1F820F38
S1132460931FD8011E962D913C911F97DC018D91ED
S11324709C91281B390B80819181820F931F91833A
S113248080834F5FDDCFA096E7E00C945E152F921A
S11324903F925F926F927F928F929F92AF92BF9280
S11324A0CF92DF92EF92FF920F931F93CF93DF931C
S11324B0CDB7DEB7C056D1090FB6F894DEBF0FBE54
S11324C0CDBF8C014B015A01522EDA018D919C91A2
S11324D0892B31F0F40180819181892BF1F424C09E
S11324E0D80118968C9190E0880F991F0E9474155A
S11324F0F50191838083009709F4B1C0FC0120E0C9
S113250030E0D80118968C9190E02817390714F719
S1132510119211922F5F3F4FF4CFE12CF12C6E01F9
S1132520B1E2CB0ED11C21C0F801808590E0880F68
S1132530991F0E947415D4018D939C93009709F4FC
S11325408EC0FC0120E030E0D80118968C9190E018
S11325502817390714F7D8011E968D919C911F975F
S1132560819391932F5F3F4FEFCF452DBE016F5B5A
S11325707F4FC8010E94EA11F8016084712CFE01AA
S1132580EF5BFF4FC6019E012F5F3F4F190120E013
S113259030E0261537054CF5E114F10489F0DC012F
S11325A06D917C91408151816417750748F0D10188
S11325B06D917C91408151814617570748F00DC0B9
S11325C040815181DC014D935C93E114F10479F76E
S11325D040815181D1014D935C932F5F3F4FB2E015
S11325E02B0E311C32960296D4CFEFEFEE1AFE0A70
S11325F0FAE0EF16F10409F0B8CF9E012F5F3F4FC8
S11326007901360180E090E0F801208530E08217FE
S113261093072CF5D7012D913D917D01B3016C19E0
S11326207D09D501ED91FC91E60FF71F40815181A1
S11326304217530710F431832083F3012191319120
S11326403F01D401ED91FC91E60FF71F40815181C8
S11326502417350710F4318320830196D5CFC05A4F
S1132660DF4F0FB6F894DEBF0FBECDBFDF91CF9121
S11326701F910F91FF90EF90DF90CF90BF90AF909C
S11326809F908F907F906F905F903F902F900895D0
S11326901F93CF93DF93EC01162F8FEF860F8230B9
S11326A018F0662359F014C021E0AE014E5F5F4F6D
S11326B0BE01CE010E944712123051F4AE014A5FAE
S11326C05F4FBE016C5F7F4F20E0CE010E94471236
S11326D0DF91CF911F910895A0E0B0E0E2E7F3E12C
S11326E00C944015EC018B01B42E842F8D7F51F492
S11326F08C819D81892B09F497C08E819F81892BC0
S113270009F492C08FEF8B0D823050F48881998147
S1132710892B09F489C08A819B81892B09F484C09F
S11327204B2DB801CE010E94EA11780100E010E0BF
S1132730C12CD12C888590E0C816D9060CF074C041
S113274081E0B8120AC0EA81FB81E00FF11F019019
S1132750F081E02DA881B9810DC08C819D812E81ED
S11327603F81B1100CC0F901E00FF11F0190F0811D
S1132770E02DDC01A00FB11F8D919C9128C0FC01BC
S1132780E00FF11F40815181E881F981E00FF11FD1
S113279080819181EE85FF854817590710F4CF0198
S11327A004C08E0F9F1F841B950BD901A00FB11F6E
S11327B02D913C91AA81BB81A00FB11F4D915C91D9
S11327C02417350720F0E40FF51FE21BF30BE81B79
S11327D0F90BA9F0D7012D913C9140E050E0281B62
S11327E0390B41095109A8EEB3E00E9424159F0159
S11327F040E050E00E94F61437FD0AC002C020E019
S113280030E0293EB3E03B072CF028EE33E002C071
S113281020E030E0F701219331937F01FFEFCF1ADD
S1132820DF0A0E5F1F4F86CFCDB7DEB7E9E00C9409
S11328305C15A0E0B0E0EFE1F4E10C943715EC0195
S11328408B01822E0E946C132884E801412C512CA8
S1132850320100E010E0C12CD12C7601312C912CF6
S113286058EEA52E53E0B52E921421F1E991F99179
S1132870882021F0C5018E1B9F0BFC01E93CF1056A
S113288024F4E333F10574F002C033243394DF01FC
S1132890A30192010E942F15C60ED71EE81EF91E31
S11328A00E0F1F1F939498EE490E93E0591E611C5E
S11328B0711CDACF31101EC0492D50E0415051092E
S11328C024EF31E0429FC001439F900D529F900D31
S11328D01124209176013091770128173907B4F03B
S11328E088EE93E0489F9001499F300D589F300D2A
S11328F011240EC0980140E050E0C701B6010E94C7
S1132900D414309377012093760102C020E030E0A4
S1132910C901CDB7DEB7E2E10C945315CF93DF9331
S1132920EC018A819B81009711F00E940C168E8124
S11329309F81009711F00E940C168881998100975D
S113294011F00E940C168C819D81009711F00E9459
S11329500C16DF91CF910895AA1BBB1B51E107C050
S1132960AA1FBB1FA617B70710F0A61BB70B881F1B
S1132970991F5A95A9F780959095BC01CD010895AA
S113298097FB072E16F4009407D077FD09D00E9418
S1132990AC1407FC05D03EF4909581959F4F0895A3
S11329A0709561957F4F0895A1E21A2EAA1BBB1B57
S11329B0FD010DC0AA1FBB1FEE1FFF1FA217B30707
S11329C0E407F50720F0A21BB30BE40BF50B661F1D
S11329D0771F881F991F1A9469F7609570958095E1
S11329E090959B01AC01BD01CF010895052E97FB85
S11329F01EF400940E940D1557FD07D00E94D414B4
S1132A0007FC03D04EF40C940D1550954095309569
S1132A1021953F4F4F4F5F4F089590958095709546
S1132A2061957F4F8F4F9F4F0895A29FB001B39F31
S1132A30C001A39F700D811D1124911DB29F700DC3
S1132A40811D1124911D08950E941515A59F900DB7
S1132A50B49F900DA49F800D911D11240895B7FF7C
S1132A600C9424150E942415821B930B08952F9215
S1132A703F924F925F926F927F928F929F92AF920A
S1132A80BF92CF92DF92EF92FF920F931F93CF9357
S1132A90DF93CDB7DEB7CA1BDB0B0FB6F894DEBFEE
S1132AA00FBECDBF09942A88398848885F846E8414
S1132AB07D848C849B84AA84B984C884DF80EE805E
S1132AC0FD800C811B81AA81B981CE0FD11D0FB667
S1132AD0F894DEBF0FBECDBFED010895EE0FFF1FCA
S1132AE00590F491E02D09940F931F93CF93DF93F6
S1132AF08230910510F482E090E0E0917C06F09140
S1132B007D0620E030E0A0E0B0E0309719F140818C
S1132B1051810281138148175907C8F0841795071A
S1132B2069F4109731F012960C93129713961C9334
S1132B3027C000937C0610937D0622C02115310521
S1132B4019F04217530718F49A01BD01EF01DF0190
S1132B50F801DBCF21153105F9F0281B390B24309E
S1132B60310580F48A819B816115710521F0FB0197
S1132B709383828304C090937D0680937C06FE0138
S1132B80329644C0FE01E20FF31F819391932250C9
S1132B903109398328833AC020917A0630917B0623
S1132BA0232B41F4209104013091050130937B06DD
S1132BB020937A06209102013091030121153105F9
S1132BC041F42DB73EB74091060150910701241BF3
S1132BD0350BE0917A06F0917B06E217F307A0F437
S1132BE02E1B3F0B2817390778F0AC014E5F5F4F5F
S1132BF02417350748F04E0F5F1F50937B06409310
S1132C007A068193919302C0E0E0F0E0CF01DF9176
S1132C10CF911F910F910895CF93DF93009709F4FB
S1132C2081C0FC01329713821282A0917C06B0917C
S1132C307D06109781F420813181820F931F2091AA
S1132C407A0630917B062817390751F5F0937B06F5
S1132C50E0937A0667C0ED0120E030E0CE17DF078D
S1132C6040F44A815B819E0141155105F1F0EA016E
S1132C70F5CFD383C28340815181840F951FC81738
S1132C80D90759F488819981840F951F02969183FD
S1132C9080838A819B81938382832115310529F462
S1132CA0F0937D06E0937C063DC0E901FB83EA8353
S1132CB049915991C40FD51FEC17FD0761F4808128
S1132CC09181840F951F0296E901998388838281FB
S1132CD093819B838A83E0E0F0E012968D919C912E
S1132CE01397009719F0FD01DC01F7CF8D919C91AA
S1132CF011979D012E5F3F4F820F931F20917A06FB
S1132D0030917B062817390769F4309729F410921B
S1132D107D0610927C0602C013821282B0937B0659
S1132D20A0937A06DF91CF91089510E0CBE3D0E031
S1132D3004C0FE010E946E152196CC33D107C9F759
S1072D40F894FFCF31
S1132D44080200007E06200011001100200000018A
S1132D540203040506FF0E0F101112476F21000031
S9030000FC
